:0400000007EF00F016
:100008007A8236ED04F093EF0AF02D50800B366EAD
:100018002D502D24386E2CAE14EF00F016EF00F0A2
:1000280017EF00F038803850D8B41DEF00F01FEFFC
:1000380000F034EF00F03828D8A425EF00F027EFBF
:1000480000F02FEF00F0000E2A6E000E2B6E000E4F
:100058002C6E000E2D6E2C8E000E2D6E3CEF00F0D7
:10006800000E2A6E000E2B6E000E2C6E000E2D6EEA
:100078003150800B376E36503718D8B446EF00F041
:1000880048EF00F049EF00F0368C31503124376EDC
:1000980030AE51EF00F053EF00F054EF00F037802E
:1000A8003750D8B45AEF00F05CEF00F071EF00F071
:1000B8003728D8A462EF00F064EF00F06CEF00F08E
:1000C800000E2E6E000E2F6E000E306E000E316E7A
:1000D800308E000E316E79EF00F0000E2E6E000E9D
:1000E8002F6E000E306E000E316E3850375CD8B06F
:1000F80080EF00F082EF00F0A9EF00F036AC87EF58
:1001080000F089EF00F08BEF00F0800E361A38C04F
:1001180039F037C038F039C037F02AC039F02EC06E
:100128002AF039C02EF02BC039F02FC02BF039C07F
:100138002FF02CC039F030C02CF039C030F02DC071
:1001480039F031C02DF039C031F0000E396E385019
:1001580037C032F0336A325E000E335A33BEBEEF18
:1001680000F0335009E11A0E325CD8A0BEEF00F05F
:10017800C0EF00F0F7EF00F02A502B102C102D10D4
:10018800D8A4C9EF00F0CCEF00F0010ECDEF00F0DD
:10019800000E396E000E2A6E000E2B6E000E2C6EAD
:1001A800000E2D6E37C038F000EF01F039A0DFEFF8
:1001B80000F0E1EF00F0E7EF00F0D89039300109E6
:1001C800396EE9EF00F0D89039322AA0EEEF00F04E
:1001D800F0EF00F0F1EF00F0398E2D342D322C3293
:1001E8002B322A32382A3750385CD8A0FEEF00F07C
:1001F80000EF01F0DAEF00F036BC05EF01F007EF91
:1002080001F047EF01F03850D8A40DEF01F00FEFDF
:1002180001F019EF01F0000E2A6E000E2B6E000E91
:100228002C6E000E2D6E68EF02F02E502A262F50ED
:100238002B2230502C2231502D222DA026EF01F0F8
:1002480028EF01F0D4EF01F039A02DEF01F02FEFE6
:1002580001F035EF01F0D89039300109396E37EFE8
:1002680001F0D89039322AA03CEF01F03EEF01F0BE
:100278003FEF01F0398E2D342D322C322B322A32B9
:10028800382AD4EF01F02E502A5C2F502B583050CA
:100298002C582D50800A326E3150800A3258D8B00E
:1002A80058EF01F05AEF01F085EF01F02A502E5C6B
:1002B800326E2B502F58336E2C503058346E2D50D0
:1002C8003158356EFF0E32242A6EFF0E33202B6E06
:1002D800FF0E34202C6EFF0E35202D6E800E361A40
:1002E800396C3950D8A47BEF01F07DEF01F08DEF28
:1002F80001F0010E2A26000E2B222C222D228DEF32
:1003080001F02E502A5E2F502B5A30502C5A315063
:100318002D5A2A502B102C102D10D8A496EF01F02E
:1003280098EF01F0CDEF01F03950D8A49EEF01F01D
:10033800A0EF01F0CDEF01F0000E2A6E000E2B6E3B
:10034800000E2C6E000E2D6E68EF02F0D8902A3643
:100358002B362C362D3639AEB4EF01F0B6EF01F05E
:10036800B7EF01F02A8039A0BCEF01F0BEEF01F031
:10037800C2EF01F0D8803936C4EF01F0D890393691
:100388003850D8B4CAEF01F0CCEF01F0CDEF01F04E
:1003980038062CAED2EF01F0D4EF01F0AAEF01F04D
:1003A800000E376E39AEDBEF01F0DDEF01F0F5EF4F
:1003B80001F039C032F07F0E3216D8B4E6EF01F002
:1003C800E8EF01F0ECEF01F0010E376EF5EF01F008
:1003D8002AA0F1EF01F0F3EF01F0F5EF01F0E8EFFB
:1003E80001F03750D8B4FBEF01F0FDEF01F028EF32
:1003F80002F0010E2A26000E2B222C222D222DA0DF
:1004080008EF02F00AEF02F028EF02F02AC032F0FB
:100418002BC033F02CC034F02DC035F035343532D4
:1004280034323332323232C02AF033C02BF034C087
:100438002CF035C02DF03828D8B425EF02F027EF7E
:1004480002F028EF02F0382A3828D8B42EEF02F04C
:1004580030EF02F038EF02F03850D8A436EF02F04F
:1004680038EF02F04AEF02F0000E2A6E000E2B6EF3
:10047800000E2C6E000E2D6E3850D8A446EF02F0F8
:1004880048EF02F04AEF02F0000E366E38A04FEF48
:1004980002F051EF02F054EF02F02C8E55EF02F00B
:1004A8002C9ED89038302D6E36AE5DEF02F05FEF9F
:1004B80002F060EF02F02D8E2AC02AF02BC02BF03C
:1004C8002CC02CF02DC02DF012001450800B216E82
:1004D80014501424286E13AE74EF02F076EF02F075
:1004E80077EF02F028802850D8B47DEF02F07FEF34
:1004F80002F094EF02F02828D8A485EF02F087EFE5
:1005080002F08FEF02F0000E116E000E126E000E58
:10051800136E000E146E138E000E146E9CEF02F014
:10052800000E116E000E126E000E136E000E146E89
:100538001850800B211A18501824296E17AEA7EFEF
:1005480002F0A9EF02F0AAEF02F029802950D8B4EE
:10055800B0EF02F0B2EF02F0C7EF02F02928D8A4FA
:10056800B8EF02F0BAEF02F0C2EF02F0000E156E1B
:10057800000E166E000E176E000E186E178E000E07
:10058800186ECFEF02F0000E156E000E166E000EFC
:10059800176E000E186E1550161017101810D8A4E4
:1005A800D8EF02F0DAEF02F0F2EF02F0000E116E6F
:1005B800000E126E000E136E000E146E800E1312D3
:1005C8007F0E14122150141211C011F012C012F033
:1005D80013C013F014C014F035EF04F02850D8A459
:1005E800F8EF02F0FAEF02F004EF03F0000E116EDC
:1005F800000E126E000E136E000E146E35EF04F02E
:10060800295028C019F01A6A195E000E1A5A7F0E6E
:100618001924226E000E1A20236E11C01DF012C07C
:100628001EF013C01FF014C020F0000E116E000E53
:10063800126E000E136E000E146E000E246E000E65
:10064800256E000E266E000E276E000E296E65EFD1
:1006580003F02950D8B433EF03F035EF03F04CEF33
:1006680003F0D8901D361E361F362036D890113626
:1006780012361336143627AE44EF03F046EF03F074
:1006880047EF03F01180D8902436253626362736D2
:1006980015501D5C16501E5817501F5818502058DA
:1006A800D8A059EF03F05BEF03F064EF03F0278C59
:1006B80015501D5E16501E5A17501F5A1850205AB2
:1006C800292A190E29646BEF03F06DEF03F02DEF63
:1006D80003F01D501E101F102010D8B476EF03F041
:1006E80078EF03F090EF03F0248090EF03F0D890B8
:1006F800113612361336143627AE85EF03F087EF1E
:1007080003F088EF03F01180D8902436253626367A
:1007180027362206D8A0230613AE95EF03F097EFED
:1007280003F07BEF03F0000E296E27AE9EEF03F077
:10073800A0EF03F0C4EF03F0FF0E2414196EFF0EB0
:1007480025141A6EFF0E26141B6E7F0E27141C6EBE
:1007580019501A101B101C10D8B4B5EF03F0B7EFDE
:1007680003F0BBEF03F0010E296EC4EF03F011A0F4
:10077800C0EF03F0C2EF03F0C4EF03F0B7EF03F0EC
:100788002950D8B4CAEF03F0CCEF03F0F0EF03F030
:10079800010E1126000E12221322142214A0D7EFE4
:1007A80003F0D9EF03F0F0EF03F011C019F012C015
:1007B8001AF013C01BF014C01CF01C341C321B327E
:1007C8001A32193219C011F01AC012F01BC013F0F6
:1007D8001CC014F0224A232A23BEFBEF03F0235047
:1007E80008E12228D8A0FBEF03F0FDEF03F008EFA3
:1007F80004F0000E236E2268000E116E000E126EB9
:10080800000E136E000E146E23BE15EF04F0235075
:1008180006E12204D8B013EF04F015EF04F023EF3B
:1008280004F0000E236E000E226E000E116E000EF4
:10083800126E000E136E000E146E000E216E22C092
:1008480028F028A02AEF04F02CEF04F02FEF04F092
:10085800138E30EF04F0139ED8902830146EE6EF14
:1008680002F012000600FACF01F0FBCF02F0F2A866
:1008780040EF04F042EF04F04BEF04F0F2A247EF30
:1008880004F049EF04F04BEF04F02DEC0BF0F0A668
:1008980050EF04F052EF04F05BEF04F0F0A057EFD4
:1008A80004F059EF04F05BEF04F02CEC0BF0F0A827
:1008B80060EF04F062EF04F06BEF04F0F0A267EF72
:1008C80004F069EF04F06BEF04F02BEC0BF0F2A6E8
:1008D80070EF04F072EF04F08FEF04F0F2A077EFFE
:1008E80004F079EF04F08FEF04F081A87EEF04F0B4
:1008F80080EF04F08FEF04F06950D8A486EF04F07D
:1009080088EF04F08FEF04F0010E696E010E2AECF7
:100918000BF0B1EF04F0F2A694EF04F096EF04F0B8
:10092800B1EF04F0F2A09BEF04F09DEF04F0B1EFFB
:1009380004F081B8A2EF04F0A4EF04F0B1EF04F0E2
:100948006904D8A4AAEF04F0ACEF04F0B1EF04F006
:10095800000E696E000E2AEC0BF0F2A6B6EF04F05A
:10096800B8EF04F0D5EF04F0F2A0BDEF04F0BFEF4C
:1009780004F0D5EF04F081AAC4EF04F0C6EF04F048
:10098800D5EF04F06850D8A4CCEF04F0CEEF04F013
:10099800D5EF04F0010E686E010E29EC0BF0F7EFAD
:1009A80004F0F2A6DAEF04F0DCEF04F0F7EF04F05D
:1009B800F2A0E1EF04F0E3EF04F0F7EF04F081BAFE
:1009C800E8EF04F0EAEF04F0F7EF04F06804D8A4C5
:1009D800F0EF04F0F2EF04F0F7EF04F0000E686EA9
:1009E800000E29EC0BF0F2A6FCEF04F0FEEF04F089
:1009F8001BEF05F0F2A003EF05F005EF05F01BEF84
:100A080005F081AC0AEF05F00CEF05F01BEF05F0DF
:100A18006750D8A412EF05F014EF05F01BEF05F0AE
:100A2800010E676E010E28EC0BF03DEF05F0F2A603
:100A380020EF05F022EF05F03DEF05F0F2A027EFDB
:100A480005F029EF05F03DEF05F081BC2EEF05F02C
:100A580030EF05F03DEF05F06704D8A436EF05F058
:100A680038EF05F03DEF05F0000E676E000E28EC3C
:100A78000BF0F2A642EF05F044EF05F061EF05F048
:100A8800F2A049EF05F04BEF05F061EF05F081AEFC
:100A980050EF05F052EF05F061EF05F06650D8A46D
:100AA80058EF05F05AEF05F061EF05F0010E666E9C
:100AB800010E27EC0BF083EF05F0F2A666EF05F0C8
:100AC80068EF05F083EF05F0F2A06DEF05F06FEF2A
:100AD80005F083EF05F081BE74EF05F076EF05F0C1
:100AE80083EF05F06604D8A47CEF05F07EEF05F0EF
:100AF80083EF05F0000E666E000E27EC0BF09DA844
:100B080088EF05F08AEF05F093EF05F09EA88FEFC8
:100B180005F091EF05F093EF05F02EEC0BF09DAA90
:100B280098EF05F09AEF05F0A3EF05F09EAA9FEF66
:100B380005F0A1EF05F0A3EF05F02FEC0BF09DA653
:100B4800A8EF05F0AAEF05F0B3EF05F09EA6AFEF0A
:100B580005F0B1EF05F0B3EF05F0FCEC0AF0A0A644
:100B6800B8EF05F0BAEF05F0C3EF05F0A1A6BFEFA7
:100B780005F0C1EF05F0C3EF05F025EC0BF002C05E
:100B8800FBFF01C0FAFF7A9211000B6E0B50D8B42C
:100B9800D0EF05F0D2EF05F0F4EF05F006BED9EF7F
:100BA80005F0D7EF05F0F4EF05F003C007F004C037
:100BB80008F005C009F006C00AF0071E081E091E45
:100BC8000A1E072A000E082209220A2207C00DF071
:100BD80008C00EF009C00FF00AC010F0FCEF05F0D5
:100BE80003C00DF004C00EF005C00FF006C010F0F1
:100BF8000350041005100610D8A405EF06F007EFFF
:100C080006F011EF06F0000E036E000E046E000EE3
:100C1800056E000E066EA2EF06F0960E0C6E1BEF28
:100C280006F00C2AD89010320F320E320D32000E18
:100C38000D14076E000E0E14086E000E0F14096EC8
:100C4800FE0E10140A6E0750081009100A10D8A4D6
:100C580030EF06F032EF06F015EF06F040EF06F041
:100C68000C2A010E0D26000E0E220F221022D890FB
:100C780010320F320E320D32000E0D14076E000EB8
:100C88000E14086E000E0F14096EFF0E10140A6E73
:100C98000750081009100A10D8A455EF06F057EFAE
:100CA80006F034EF06F05FEF06F00C06D8900D362C
:100CB8000E360F3610360FBE64EF06F066EF06F0FC
:100CC8006EEF06F0020E0C606CEF06F06EEF06F0A9
:100CD80059EF06F00CB073EF06F075EF06F076EFFB
:100CE80006F00F9ED8900C320CC007F0086A096A0B
:100CF8000A6A07C00AF0096A086A076A07500D12EB
:100D080008500E1209500F120A5010120B50D8B486
:100D180090EF06F092EF06F09AEF06F006BE99EF14
:100D280006F097EF06F09AEF06F0108E0DC003F06C
:100D38000EC004F00FC005F010C006F01200010E3E
:100D48000B6E03500410D8B4ACEF06F0AEEF06F00B
:100D5800CEEF06F003C0D9FF04C0DAFFDF30E83277
:100D6800E832070B056E080E0560BDEF06F0BFEF11
:100D780006F0CEEF06F003C0D9FF04C0DAFFDF505B
:100D8800070B056E040E0564CCEF06F0CEEF06F0F7
:100D980031EF07F0000E0B6E52EF07F003C0D9FFDA
:100DA80004C0DAFFDF30E832E832070B056E010EC7
:100DB800066E052AE2EF06F0D8900636052EE0EF1B
:100DC80006F00650FF0A076E03C0D9FF04C0DAFF19
:100DD800DF50070B086E0850020D940EF324D96EED
:100DE800000EF420DA6EDECF09F0DDCF0AF009C07C
:100DF800D9FF0AC0DAFF0750DF1652EF07F003C029
:100E0800D9FF04C0DAFFDF30E832E832070B056E9D
:100E1800010E066E052A13EF07F0D8900636052E48
:100E280011EF07F003C0D9FF04C0DAFFDF50070B4A
:100E3800076E0750020D940EF324D96E000EF420AD
:100E4800DA6EDECF08F0DDCF09F008C0D9FF09C09F
:100E5800DAFF0650DF1252EF07F003C0D9FF04C0D3
:100E6800DAFFDFBC3AEF07F03DEF07F0010E3EEF87
:100E780007F0000E056E066A0650000AD8B447EF60
:100E880007F0CEEF06F00550000AD8B4D2EF06F00E
:100E9800010AD8B403EF07F0CEEF06F00B501200AA
:100EA800000E486E46504710D8B45DEF07F05FEF6C
:100EB80007F0F8EF07F0C69A20EE0CF04650D92656
:100EC8004750DA22DFA06BEF07F06DEF07F075EF00
:100ED80007F046C044F047C045F067EC09F0B1EFB1
:100EE80007F020EE0CF04650D9264750DA22DFB042
:100EF80080EF07F082EF07F0B1EF07F020EE0CF07B
:100F08004650D9264750DA22DFA68DEF07F08FEF3B
:100F180007F092EF07F0C58EA0EF07F020EE0CF077
:100F28004650D9264750DA22DFB69DEF07F09FEFEB
:100F380007F0A0EF07F0C59EC69EC69CC68820EEA7
:100F48000BF04650D9264750DA22DF50C86E46C00B
:100F580003F047C004F00BEC0BF022EC0BF020EE92
:100F68000CF04650D9264750DA22DFB2BEEF07F020
:100F7800C0EF07F0C3EF07F0C79ED1EF07F020EEF0
:100F88000CF04650D9264750DA22DFA2CEEF07F000
:100F9800D0EF07F0D1EF07F0C78E20EE0CF04650E7
:100FA800D9264750DA22DFA4DCEF07F0DEEF07F09E
:100FB800E1EF07F0C78CEFEF07F020EE0CF046509A
:100FC800D9264750DA22DFB4ECEF07F0EEEF07F04E
:100FD800EFEF07F0C79C46C003F047C004F0C0EC31
:100FE8000AF0C68A010E486E48501200010E0C6EB7
:100FF80003500410D8B403EF08F005EF08F025EF0C
:1010080008F003C0D9FF04C0DAFFDF30E832E83265
:10101800070B066E080E066014EF08F016EF08F0CE
:1010280025EF08F003C0D9FF04C0DAFFDF50070B33
:10103800066E040E066423EF08F025EF08F088EF2B
:1010480008F0000E0C6E9DEF08F003C0D9FF04C035
:10105800DAFFDF30E832E832070B066E010E076E62
:10106800062A39EF08F0D8900736062E37EF08F031
:1010780003C0D9FF04C0DAFFDF50070B086E085021
:10108800020D8A0EF324D96E000EF420DA6EDECF3C
:1010980009F0DDCF0AF009C0D9FF0AC0DAFF07500E
:1010A800DF129DEF08F003C0D9FF04C0DAFFDF307C
:1010B800E832E832070B066E010E076E062A67EF64
:1010C80008F0D8900736062E65EF08F00750FF0A9B
:1010D800086E03C0D9FF04C0DAFFDF50070B096EA2
:1010E8000950020D8A0EF324D96E000EF420DA6E30
:1010F800DECF0AF0DDCF0BF00AC0D9FF0BC0DAFF54
:101108000850DF169DEF08F00550066E076A075075
:10111800000AD8B492EF08F025EF08F00650000A4C
:10112800D8B457EF08F0010AD8B429EF08F025EF32
:1011380008F00C5012003C343D34436E4350D8A4A0
:10114800A8EF08F0AAEF08F0B4EF08F0000E3A6E26
:10115800000E3B6E000E3C6E000E3D6E21EF09F056
:101168003AC03EF03BC03FF03CC040F03DC041F0CB
:10117800200EC4EF08F0D890413240323F323E3260
:10118800E82EBFEF08F03E50426E3C8EFF0E3A1636
:10119800FF0E3B16FF0E3C16000E3D16960E435EE4
:1011A80043BEDBEF08F0D9EF08F0F1EF08F0435049
:1011B800800A970FD8B0E3EF08F0E5EF08F0E7EF03
:1011C80008F0AAEF08F0D8903D323C323B323A3270
:1011D800433EE7EF08F009EF09F01F0E4364F7EF0D
:1011E80008F0F9EF08F001EF09F0AAEF08F0D8903D
:1011F8003A363B363C363D3643064350D8A407EFD3
:1012080009F009EF09F0FBEF08F04250D8B40FEFEE
:1012180009F011EF09F019EF09F03D1E3C1E3B1EC5
:101228003A6C000E3B223C223D223AC03AF03BC0C9
:101238003BF03CC03CF03DC03DF012000D500E109C
:10124800D8B429EF09F02BEF09F04BEF09F00DC0E6
:10125800D9FF0EC0DAFFDF30E832E832070B0F6E35
:10126800080E0F603AEF09F03CEF09F04BEF09F078
:101278000DC0D9FF0EC0DAFFDF50070B0F6E040E4A
:101288000F6449EF09F04BEF09F04FEF09F0000E3A
:10129800106E65EF09F00DC003F00EC004F0A3EC6A
:1012A80006F0106E0DC003F00EC004F00DC0D9FF9B
:1012B8000EC0DAFF000EDFBE010E056EFAEC07F075
:1012C800106E10501200C650F00B0809C66E000EC2
:1012D8002E6E000E2F6E800E306EBF0E316E44C023
:1012E800D9FF45C0DAFFDECF03F0DECF04F0DECF52
:1012F80005F0DECF06F0000EC9EC05F003C015F0CE
:1013080004C016F005C017F006C018F0000E116EE4
:10131800240E126EF40E136E490E146E69EC02F070
:1013280011C02AF012C02BF013C02CF014C02DF0FD
:1013380009EC00F02AC03AF02BC03BF02CC03CF07E
:101348002DC03DF09FEC08F03A50C86E1200010E17
:10135800146E11501210D8A4B4EF09F0B6EF09F0CA
:10136800BAEF09F0000E146EE7EF09F070C015F03F
:1013780011C0D9FF12C0DAFFDF500F0B136E1550E2
:101388001318F80B1318156E11C0D9FF12C0DAFF25
:10139800DF38070B136E1346134613461550131800
:1013A800C70B1318156E159C11C0D9FF12C0DAFFB0
:1013B800DFAE02D0158E01D0159E150E0D6E000EF3
:1013C8000E6E22EC09F0145012000D500E10D8A425
:1013D800F0EF09F0F2EF09F0F4EF09F023EF0AF06B
:1013E8006FC010F00DC0D9FF0EC0DAFFDF500F0B31
:1013F8000F6E10500F18F80B0F18106E0DC0D9FF94
:101408000EC0DAFFDF38070B0F6E0F460F460F4688
:1014180010500F18C70B0F18106E109C0DC0D9FF75
:101428000EC0DAFFDFAE02D0108E01D0109E100E73
:10143800036E000E046E010E056EFAEC07F0120042
:101448000D500E10D8A42BEF0AF02DEF0AF02FEF55
:101458000AF05EEF0AF06EC010F00DC0D9FF0EC0A2
:10146800DAFFDF500F0B0F6E10500F18F80B0F1824
:10147800106E0DC0D9FF0EC0DAFFDF38070B0F6EF4
:101488000F460F460F4610500F18C70B0F18106E57
:10149800109C0DC0D9FF0EC0DAFFDFAE02D0108E4F
:1014A80001D0109E100E036E000E046E000E056E25
:1014B800FAEC07F012009E0E466E000E476E54ECD2
:1014C80007F0796E780E116E000E126EABEC09F013
:1014D800796E410E6518D8A474EF0AF076EF0AF019
:1014E8007EEF0AF0780E0D6E000E0E6EE9EC09F034
:1014F8006DEF0AF0430E6518D8A485EF0AF087EF60
:101508000AF08FEF0AF0780E0D6E000E0E6E24ECC6
:101518000AF06DEF0AF06DEF0AF007EF00F0CA0E5F
:10152800F66E150EF76E000EF86E00EE80F010EEF7
:101538002DF00900F5CFEEFFE550E150FAE13C0E41
:10154800F66E160EF76E000EF86E00EE71F010EEE5
:1015580008F00900F5CFEEFFE550E150FAE100EEA2
:1015680049F0280EEE6AE806FDE17A907A92000EBC
:10157800F86E00015FEF0AF09D86A0969E96A196F0
:1015880020EE04F00350D9260450DA22DECF4DF0C5
:10159800DDCF4EF020EE08F00350D9260450DA22B1
:1015A800DECF4BF0DDCF4CF020EE06F00350D9260D
:1015B8000450DA22DECF49F0DDCF4AF0F28EF28C09
:1015C8001200800F810F820F830F840F890F8A0FFB
:1015D8008B0F8C0F8D0F920F930F940F950F960F03
:0F15E80000000000000032160000063002000074
:1015F8009E9602D80AEF0BF00500FA6E4950FD6E70
:101608004A50FE6EF850FF6EFA501200120020EE9B
:101618000AF00350D9260450DA22DF50056EC6506E
:101628000518F00B0518C66E1200C698C9CF65F0EC
:10163800C68812006A5A622A1A622A039486948813
:101648001200A196120012001200120012001200DD
:08165800120012001200120042
:020000040020DA
:08000000FFFFFFFFFFFFFFFF00
:020000040030CA
:0E000000FF02091EFF8181FF0FC00FE00F40BD
:00000001FF
