:0400000007EF00F016
:100008007A8236ED04F08AEF08F02B50800B346EBC
:100018002B502B24366E2AAE14EF00F016EF00F0AA
:1000280017EF00F036803650D8B41DEF00F01FEF00
:1000380000F034EF00F03628D8A425EF00F027EFC1
:1000480000F02FEF00F0000E286E000E296E000E53
:100058002A6E000E2B6E2A8E000E2B6E3CEF00F0DF
:10006800000E286E000E296E000E2A6E000E2B6EF2
:100078002F50800B356E34503518D8B446EF00F049
:1000880048EF00F049EF00F0348C2F502F24356EE4
:100098002EAE51EF00F053EF00F054EF00F0358032
:1000A8003550D8B45AEF00F05CEF00F071EF00F073
:1000B8003528D8A462EF00F064EF00F06CEF00F090
:1000C800000E2C6E000E2D6E000E2E6E000E2F6E82
:1000D8002E8E000E2F6E79EF00F0000E2C6E000EA3
:1000E8002D6E000E2E6E000E2F6E3650355CD8B079
:1000F80080EF00F082EF00F0A9EF00F034AC87EF5A
:1001080000F089EF00F08BEF00F0800E341A36C053
:1001180037F035C036F037C035F028C037F02CC07E
:1001280028F037C02CF029C037F02DC029F037C08F
:100138002DF02AC037F02EC02AF037C02EF02BC081
:1001480037F02FC02BF037C02FF0000E376E365027
:1001580035C030F0316A305E000E315A31BEBEEF24
:1001680000F0315009E11A0E305CD8A0BEEF00F063
:10017800C0EF00F0F7EF00F0285029102A102B10DC
:10018800D8A4C9EF00F0CCEF00F0010ECDEF00F0DD
:10019800000E376E000E286E000E296E000E2A6EB5
:1001A800000E2B6E35C036F000EF01F037A0DFEF00
:1001B80000F0E1EF00F0E7EF00F0D89037300109E8
:1001C800376EE9EF00F0D890373228A0EEEF00F054
:1001D800F0EF00F0F1EF00F0378E2B342B322A329B
:1001E80029322832362A3550365CD8A0FEEF00F086
:1001F80000EF01F0DAEF00F034BC05EF01F007EF93
:1002080001F047EF01F03650D8A40DEF01F00FEFE1
:1002180001F019EF01F0000E286E000E296E000E95
:100228002A6E000E2B6E68EF02F02C5028262D50F7
:1002380029222E502A222F502B222BA026EF01F004
:1002480028EF01F0D4EF01F037A02DEF01F02FEFE8
:1002580001F035EF01F0D89037300109376E37EFEC
:1002680001F0D890373228A03CEF01F03EEF01F0C2
:100278003FEF01F0378E2B342B322A3229322832C5
:10028800362AD4EF01F02C50285C2D5029582E50D6
:100298002A582B50800A306E2F50800A3058D8B018
:1002A80058EF01F05AEF01F085EF01F028502C5C6F
:1002B800306E29502D58316E2A502E58326E2B50E0
:1002C8002F58336EFF0E3024286EFF0E3120296E12
:1002D800FF0E32202A6EFF0E33202B6E800E341A4A
:1002E800376C3750D8A47BEF01F07DEF01F08DEF2C
:1002F80001F0010E2826000E29222A222B228DEF3A
:1003080001F02C50285E2D50295A2E502A5A2F5071
:100318002B5A285029102A102B10D8A496EF01F038
:1003280098EF01F0CDEF01F03750D8A49EEF01F01F
:10033800A0EF01F0CDEF01F0000E286E000E296E3F
:10034800000E2A6E000E2B6E68EF02F0D890283649
:1003580029362A362B3637AEB4EF01F0B6EF01F066
:10036800B7EF01F0288037A0BCEF01F0BEEF01F035
:10037800C2EF01F0D8803736C4EF01F0D890373695
:100388003650D8B4CAEF01F0CCEF01F0CDEF01F050
:1003980036062AAED2EF01F0D4EF01F0AAEF01F051
:1003A800000E356E37AEDBEF01F0DDEF01F0F5EF53
:1003B80001F037C030F07F0E3016D8B4E6EF01F008
:1003C800E8EF01F0ECEF01F0010E356EF5EF01F00A
:1003D80028A0F1EF01F0F3EF01F0F5EF01F0E8EFFD
:1003E80001F03550D8B4FBEF01F0FDEF01F028EF34
:1003F80002F0010E2826000E29222A222B222BA0E9
:1004080008EF02F00AEF02F028EF02F028C030F0FF
:1004180029C031F02AC032F02BC033F033343332E4
:1004280032323132303230C028F031C029F032C097
:100438002AF033C02BF03628D8B425EF02F027EF86
:1004480002F028EF02F0362A3628D8B42EEF02F050
:1004580030EF02F038EF02F03650D8A436EF02F051
:1004680038EF02F04AEF02F0000E286E000E296EF7
:10047800000E2A6E000E2B6E3650D8A446EF02F0FE
:1004880048EF02F04AEF02F0000E346E36A04FEF4C
:1004980002F051EF02F054EF02F02A8E55EF02F00D
:1004A8002A9ED89036302B6E34AE5DEF02F05FEFA7
:1004B80002F060EF02F02B8E28C028F029C029F046
:1004C8002AC02AF02BC02BF012001250800B1F6E8E
:1004D80012501224266E11AE74EF02F076EF02F07D
:1004E80077EF02F026802650D8B47DEF02F07FEF38
:1004F80002F094EF02F02628D8A485EF02F087EFE7
:1005080002F08FEF02F0000E0F6E000E106E000E5C
:10051800116E000E126E118E000E126E9CEF02F01C
:10052800000E0F6E000E106E000E116E000E126E91
:100538001650800B1F1A16501624276E15AEA7EFFB
:1005480002F0A9EF02F0AAEF02F027802750D8B4F2
:10055800B0EF02F0B2EF02F0C7EF02F02728D8A4FC
:10056800B8EF02F0BAEF02F0C2EF02F0000E136E1D
:10057800000E146E000E156E000E166E158E000E0F
:10058800166ECFEF02F0000E136E000E146E000E02
:10059800156E000E166E1350141015101610D8A4F0
:1005A800D8EF02F0DAEF02F0F2EF02F0000E0F6E71
:1005B800000E106E000E116E000E126E800E1112DB
:1005C8007F0E12121F5012120FC00FF010C010F041
:1005D80011C011F012C012F035EF04F02650D8A463
:1005E800F8EF02F0FAEF02F004EF03F0000E0F6EDE
:1005F800000E106E000E116E000E126E35EF04F034
:10060800275026C017F0186A175E000E185A7F0E7A
:100618001724206E000E1820216E0FC01BF010C08A
:100628001CF011C01DF012C01EF0000E0F6E000E5F
:10063800106E000E116E000E126E000E226E000E6D
:10064800236E000E246E000E256E000E276E65EFD9
:1006580003F02750D8B433EF03F035EF03F04CEF35
:1006680003F0D8901B361C361D361E36D8900F3630
:1006780010361136123625AE44EF03F046EF03F07C
:1006880047EF03F00F80D8902236233624362536DC
:1006980013501B5C14501C5815501D5816501E58EA
:1006A800D8A059EF03F05BEF03F064EF03F0258C5B
:1006B80013501B5E14501C5A15501D5A16501E5AC2
:1006C800272A190E27646BEF03F06DEF03F02DEF67
:1006D80003F01B501C101D101E10D8B476EF03F049
:1006E80078EF03F090EF03F0228090EF03F0D890BA
:1006F8000F3610361136123625AE85EF03F087EF28
:1007080003F088EF03F00F80D89022362336243682
:1007180025362006D8A0210611AE95EF03F097EFF5
:1007280003F07BEF03F0000E276E25AE9EEF03F07B
:10073800A0EF03F0C4EF03F0FF0E2214176EFF0EB4
:100748002314186EFF0E2414196E7F0E25141A6ECA
:100758001750181019101A10D8B4B5EF03F0B7EFE6
:1007680003F0BBEF03F0010E276EC4EF03F00FA0F8
:10077800C0EF03F0C2EF03F0C4EF03F0B7EF03F0EC
:100788002750D8B4CAEF03F0CCEF03F0F0EF03F032
:10079800010E0F26000E10221122122212A0D7EFEE
:1007A80003F0D9EF03F0F0EF03F00FC017F010C01B
:1007B80018F011C019F012C01AF01A341A3219328E
:1007C8001832173217C00FF018C010F019C011F006
:1007D8001AC012F0204A212A21BEFBEF03F0215053
:1007E80008E12028D8A0FBEF03F0FDEF03F008EFA5
:1007F80004F0000E216E2068000E0F6E000E106EC1
:10080800000E116E000E126E21BE15EF04F021507D
:1008180006E12004D8B013EF04F015EF04F023EF3D
:1008280004F0000E216E000E206E000E0F6E000EFA
:10083800106E000E116E000E126E000E1F6E20C09C
:1008480026F026A02AEF04F02CEF04F02FEF04F096
:10085800118E30EF04F0119ED8902630126EE6EF1C
:1008680002F012000600F2A83CEF04F03EEF04F09C
:1008780047EF04F0F2A243EF04F045EF04F047EF2E
:1008880004F059EC09F0F0A64CEF04F04EEF04F038
:1008980057EF04F0F0A053EF04F055EF04F057EFD2
:1008A80004F058EC09F0F0A85CEF04F05EEF04F0F7
:1008B80067EF04F0F0A263EF04F065EF04F067EF70
:1008C80004F057EC09F0F2A66CEF04F06EEF04F0B8
:1008D8008BEF04F0F2A073EF04F075EF04F08BEFE8
:1008E80004F081A87AEF04F07CEF04F08BEF04F0B9
:1008F8006950D8A482EF04F084EF04F08BEF04F081
:10090800010E696E010E54EC09F0ADEF04F0F2A689
:1009180090EF04F092EF04F0ADEF04F0F2A097EF3F
:1009280004F099EF04F0ADEF04F081B89EEF04F005
:10093800A0EF04F0ADEF04F06904D8A4A6EF04F02A
:10094800A8EF04F0ADEF04F0000E696E000E54EC51
:1009580009F0F2A6B2EF04F0B4EF04F0D1EF04F01E
:10096800F2A0B9EF04F0BBEF04F0D1EF04F081AAD4
:10097800C0EF04F0C2EF04F0D1EF04F06850D8A43F
:10098800C8EF04F0CAEF04F0D1EF04F0010E686E6E
:10099800010E53EC09F0F3EF04F0F2A6D6EF04F0E1
:1009A800D8EF04F0F3EF04F0F2A0DDEF04F0DFEF8E
:1009B80004F0F3EF04F081BAE4EF04F0E6EF04F09A
:1009C800F3EF04F06804D8A4ECEF04F0EEEF04F0C1
:1009D800F3EF04F0000E686E000E53EC09F0F2A677
:1009E800F8EF04F0FAEF04F017EF05F0F2A0FFEFCC
:1009F80004F001EF05F017EF05F081AC06EF05F004
:100A080008EF05F017EF05F06750D8A40EEF05F0D2
:100A180010EF05F017EF05F0010E676E010E52ECAE
:100A280009F039EF05F0F2A61CEF05F01EEF05F00E
:100A380039EF05F0F2A023EF05F025EF05F039EFC7
:100A480005F081BC2AEF05F02CEF05F039EF05F031
:100A58006704D8A432EF05F034EF05F039EF05F05C
:100A6800000E676E000E52EC09F0F2A63EEF05F09C
:100A780040EF05F05DEF05F0F2A045EF05F047EF18
:100A880005F05DEF05F081AE4CEF05F04EEF05F097
:100A98005DEF05F06650D8A454EF05F056EF05F069
:100AA8005DEF05F0010E666E010E51EC09F07FEF67
:100AB80005F0F2A662EF05F064EF05F07FEF05F0B0
:100AC800F2A069EF05F06BEF05F07FEF05F081BE4E
:100AD80070EF05F072EF05F07FEF05F06604D8A41B
:100AE80078EF05F07AEF05F07FEF05F0000E666EFF
:100AF800000E51EC09F09DA884EF05F086EF05F093
:100B08008FEF05F09EA88BEF05F08DEF05F08FEFC6
:100B180005F05AEC09F09DAA94EF05F096EF05F060
:100B28009FEF05F09EAA9BEF05F09DEF05F09FEF64
:100B380005F05BEC09F09DA6A4EF05F0A6EF05F023
:100B4800AFEF05F09EA6ABEF05F0ADEF05F0AFEF08
:100B580005F055EC09F0A0A6B4EF05F0B6EF05F0E6
:100B6800BFEF05F0A1A6BBEF05F0BDEF05F0BFEFA5
:100B780005F056EC09F07A921100096E0950D8B4C4
:100B8800C8EF05F0CAEF05F0ECEF05F004BED1EFB1
:100B980005F0CFEF05F0ECEF05F001C005F002C05D
:100BA80006F003C007F004C008F0051E061E071E65
:100BB800081E052A000E06220722082205C00BF08F
:100BC80006C00CF007C00DF008C00EF0F4EF05F0F9
:100BD80001C00BF002C00CF003C00DF004C00EF011
:100BE8000150021003100410D8A4FDEF05F0FFEF28
:100BF80005F009EF06F0000E016E000E026E000E01
:100C0800036E000E046E9AEF06F0960E0A6E13EF4E
:100C180006F00A2AD8900E320D320C320B32000E32
:100C28000B14056E000E0C14066E000E0D14076EE4
:100C3800FE0E0E14086E0550061007100810D8A4F2
:100C480028EF06F02AEF06F00DEF06F038EF06F071
:100C58000A2A010E0B26000E0C220D220E22D89015
:100C68000E320D320C320B32000E0B14056E000ED4
:100C78000C14066E000E0D14076EFF0E0E14086E8F
:100C88000550061007100810D8A44DEF06F04FEFD6
:100C980006F02CEF06F057EF06F00A06D8900B3650
:100CA8000C360D360E360DBE5CEF06F05EEF06F024
:100CB80066EF06F0020E0A6064EF06F066EF06F0D3
:100CC80051EF06F00AB06BEF06F06DEF06F06EEF2D
:100CD80006F00D9ED8900A320AC005F0066A076A27
:100CE800086A05C008F0076A066A056A05500B120B
:100CF80006500C1207500D1208500E120950D8B4A5
:100D080088EF06F08AEF06F092EF06F004BE91EF46
:100D180006F08FEF06F092EF06F00E8E0BC001F092
:100D28000CC002F00DC003F00EC004F01200000E5B
:100D3800466E44504510D8B4A4EF06F0A6EF06F06E
:100D48003FEF07F0C69A20EE08F04450D9264550E8
:100D5800DA22DFA0B2EF06F0B4EF06F0BCEF06F03F
:100D680044C042F045C043F010EC08F0F8EF06F03C
:100D780020EE08F04450D9264550DA22DFB0C7EFFC
:100D880006F0C9EF06F0F8EF06F020EE08F0445040
:100D9800D9264550DA22DFA6D4EF06F0D6EF06F0C2
:100DA800D9EF06F0C58EE7EF06F020EE08F04450C4
:100DB800D9264550DA22DFB6E4EF06F0E6EF06F072
:100DC800E7EF06F0C59EC69EC69CC68820EE07F0D3
:100DD8004450D9264550DA22DF50C86E44C001F08D
:100DE80045C002F03BEC09F04DEC09F020EE08F0AC
:100DF8004450D9264550DA22DFB205EF07F007EF55
:100E080007F00AEF07F0C79E18EF07F020EE08F08A
:100E18004450D9264550DA22DFA215EF07F017EF24
:100E280007F018EF07F0C78E20EE08F04450D926D7
:100E38004550DA22DFA423EF07F025EF07F028EF6B
:100E480007F0C78C36EF07F020EE08F04450D9269B
:100E58004550DA22DFB433EF07F035EF07F036EF0D
:100E680007F0C79C44C001F045C002F050EC09F0FF
:100E7800C68A010E466E465012003A343B34416E23
:100E88004150D8A44AEF07F04CEF07F056EF07F0AF
:100E9800000E386E000E396E000E3A6E000E3B6E74
:100EA800C3EF07F038C03CF039C03DF03AC03EF01F
:100EB8003BC03FF0200E66EF07F0D8903F323E323D
:100EC8003D323C32E82E61EF07F03C50406E3A8EDE
:100ED800FF0E3816FF0E3916FF0E3A16000E3B1697
:100EE800960E415E41BE7DEF07F07BEF07F093EF72
:100EF80007F04150800A970FD8B085EF07F087EFC9
:100F080007F089EF07F04CEF07F0D8903B323A3200
:100F180039323832413E89EF07F0ABEF07F01F0E48
:100F2800416499EF07F09BEF07F0A3EF07F04CEF50
:100F380007F0D890383639363A363B3641064150B4
:100F4800D8A4A9EF07F0ABEF07F09DEF07F04050EA
:100F5800D8B4B1EF07F0B3EF07F0BBEF07F03B1ED3
:100F68003A1E391E386C000E39223A223B2238C00C
:100F780038F039C039F03AC03AF03BC03BF01200C3
:100F88009E0E446E000E456E9BEC06F0796E410E87
:100F9800076E300EB7EC08F00B0E486E260E476E43
:100FA8005E0EE82EFED7472EFCD7482EFAD7420E03
:100FB800076E320EB7EC08F00B0E486E260E476E21
:100FC8005E0EE82EFED7472EFCD7482EFAD7430EE2
:100FD800076E300EB7EC08F00B0E486E260E476E03
:100FE8005E0EE82EFED7472EFCD7482EFAD7440EC1
:100FF800076E320EB7EC08F00B0E486E260E476EE1
:101008005E0EE82EFED7472EFCD7482EFAD7652A63
:10101800CBEF07F007EF00F0C650F00B0809C66EDB
:10102800000E2C6E000E2D6E800E2E6EBF0E2F6ED3
:1010380042C0D9FF43C0DAFFDECF01F0DECF02F0B5
:10104800DECF03F0DECF04F0000EC1EC05F001C0E6
:1010580013F002C014F003C015F004C016F0000E1F
:101068000F6E240E106EF40E116E490E126E69EC9E
:1010780002F00FC028F010C029F011C02AF012C0E9
:101088002BF009EC00F028C038F029C039F02AC04C
:101098003AF02BC03BF041EC07F03850C86E120014
:1010A800000E066E01500210D8B45DEF08F05FEF35
:1010B80008F088EF08F004500510D8B466EF08F07F
:1010C80068EF08F088EF08F003C0C9FFC7B06FEFFA
:1010D80008F071EF08F06AEF08F09E96C5BC77EF4C
:1010E80008F079EF08F080EF08F004C0D9FF05C0D8
:1010F800DAFFDF6A86EF08F004C0D9FF05C0DAFF1F
:10110800010EDF6E010E066E065012004E0EF66ED0
:10111800120EF76E000EF86E00EE80F010EE27F05B
:101128000900F5CFEEFFE550E150FAE1920EF66EB8
:10113800120EF76E000EF86E00EE72F010EE07F069
:101148000900F5CFEEFFE550E150FAE100EE49F075
:10115800290EEE6AE806FDE17A907A92000EF86EA2
:101168000001C4EF07F0086E9E0E016E000E026EBD
:1011780004EC09F0796E9E0E016E000E026E08C036
:1011880003F0710E046E000E056E54EC08F0796ED3
:101198009E0E016E000E026E07C003F0710E046E03
:1011A800000E056E54EC08F0796E9E0E016E000E6E
:1011B800026EE1EC08F0796E1200000E036E015029
:1011C8000210D8B4EAEF08F0ECEF08F002EF09F0EB
:1011D800C584C5B4F2EF08F0F4EF08F0EDEF08F0BD
:1011E8009E96C7A8FAEF08F0FCEF08F000EF09F0A8
:1011F800010E036E02EF09F0000E036E0350120099
:10120800000E036E01500210D8B40DEF09F00FEF75
:1012180009F025EF09F0C580C5B015EF09F017EF03
:1012280009F010EF09F09E96C7A61DEF09F01FEF11
:1012380009F023EF09F0010E036E25EF09F0000E07
:10124800036E03501200800F810F820F830F840FEB
:10125800890F8A0F8B0F8C0F8D0F920F930F940F9E
:0D126800950F960FA08601000000080003FE
:1012760020EE06F00150D9260250DA22DF50036E26
:10128600C6500318F00B0318C66E12006A5A622A7B
:031296001A622AAF
:10129A0094869488120012001200120012001200A2
:0E12AA001200120012001200120012001200B8
:020000040020DA
:08000000FFFFFFFFFFFFFFFF00
:020000040030CA
:0E000000FF02091EFF8181FF0FC00FE00F40BD
:00000001FF
